:020000040000FA
:020000000B28CB
:10000800DE00030E8312A0000A08A100B8280C28FD
:100018008312A801A901AA018301E22803308312EF
:10002800A6000030A7007330A4000030A50010140B
:10003800572883122903031D2228232857286E20B6
:1000480083122A03031D29282A2843280515FF306F
:10005800A4070318A50AFF30A507A901101424084E
:100068002504031D3828392843287330A40000309C
:10007800A500FF30A6070318A70AFF30A70702301C
:100088002A06031D482849284C28A90110140515DB
:1000980003302A06031D512852285728A901101099
:1000A8000511A601A7012708803ADF0080305F020A
:1000B800031D6028013026020318632864281D28C0
:1000C8008312AA0110100511A901051C6C286D28BE
:1000D800692808008312051872287328B728413048
:1000E800A300EE30A200A20B7728A30B772800000C
:1000F8008312051880288128B728A428AA01AA0AEB
:10010800A801B7280130A2002208A8070630280253
:10011800031C8F289028B7280230A2002208AA00C2
:1001280084280130A2002208A80706302802031CF0
:100138009E289F28B7280330A2002208AA008428F6
:100148002A08A200A3012308003A0319AC28B728FB
:100158002208003A03198228013A03198628033A2B
:1001680003199528B728080083160C1CBC28BD283D
:10017800C82883120C1CC128C228C828A901A90AAA
:100188000C1010108E018F01831221088A00200E96
:100198008300DE0E5E0E090083169F01073083126E
:1001A8009900C930831685009501831205108510C2
:1001B8000511051285128B170B170800FE20D02099
:1001C800F920F0206E2083122A03031DEC28ED2865
:1001D800E6281220E6280B28303083129000831678
:1001E8000C1483128E018F0108008312A801AA0142
:0E01F800A90108008316FF239000831208005F
:02400E00D431AB
:00000001FF
