:020000040000FA
:020000000D28C9
:10000800DE00030E8312A3000408A4000A08A5005A
:100018005B290E288312AD01AE01AF01B001B10119
:10002800B201B3018301A42983123303031D1D28E0
:100038001E2879287230AB000030AC002830A900A7
:100048000030AA0010146428051510143203031D8B
:100058002E282F2847280130AB020030031CAC03A0
:10006800AC02B20110142B082C04031D3C283D28B7
:1000780047287230AB000030AC000130A9020030D4
:10008800031CAA03AA0229032A04031D4C284D288D
:10009800642872302B062C04031D53285428642826
:1000A80005110330A8008A30A7005530A600A60B1A
:1000B8005B28A70B5B28A80B5B2862288312051511
:1000C80029082A04031969286A286F2833030319A1
:1000D8006E286F28282802303306031974287528DB
:1000E80079280330A6002608B30002303306031D22
:1000F8007E287F2897281010B2013103031D852818
:100108008628962805110630A8001330A700AD30C0
:10011800A600A60B8D28A70B8D28A80B8D28942840
:100128008312B101051503303306031D9C289D2851
:10013800B328B20110100511051CA328A428A02873
:100148008230A700DD30A600A60BA828A70BA82898
:10015800AD288312051CB128B228B328B30133088F
:10016800031DB728B828C6281030A8003930A700C2
:100178000D30A600A60BBE28A70BBE28A80BBE28CC
:10018800C528B72108008312AD01AE014729AF0188
:10019800B001B301B30A0630A2001330A100AD309C
:1001A800A000A00BD528A10BD528A20BD528DC28A8
:1001B8005A290130AF070318B00A0030B007E830F9
:1001C8002F06033003193006031DEB28EC28F4280A
:1001D8000130AD070318AE0A0030AE07AF01B00119
:1001E8000518F728F828012900302E026530031970
:1001F8002D02031C00290129DD2800302E0264305D
:1002080003192D02031C09290A2910290230A0000C
:100218002008B300B101B10AAF01B001AD01AE01D0
:100228005A290130AF070318B00A0030B007E83088
:100238002F06033003193006031D232924292C29EE
:100248000130AD070318AE0A0030AE07AF01B001A8
:1002580005182F293029392900302E026530031955
:100268002D02031C38293929152900302E02643043
:1002780003192D02031C4129422910290330A0002B
:100288002008B30010293308A000A1012108003A72
:1002980003194F295A292008003A0319CB28013A93
:1002A8000319F428033A03192C295A2908008B1D2D
:1002B8005E295F296B290B1C622963296B298B1125
:1002C8000518672968296929C7208B150B1083161B
:1002D8000C1C6F2970297B2983120C1C7429752921
:1002E8007B29B201B20A10108E018F010C10831203
:1002F80025088A0024088400230E8300DE0E5E0E83
:10030800090083169F01073083129900C9308316AC
:1003180085009501831285100511051285128B172A
:100328008B15831616140B170800303083129000B3
:100338000C108E018F0183160C1483121010080004
:10034800B221AB21992185211820A8290D288312D3
:10035800AF01B001B301B201B10108008316FF2358
:0E0368009000831208006300000000000800EF
:02400E00D431AB
:00000001FF
