:020000040000FA
:020000000B28CB
:10000800DE00030E8312A0000A08A100AC280C2809
:100018008312A901AA01AB018301EA2803308312E4
:10002800A7000030A8007330A5000030A600101407
:1000380083120515522883122A03031D2428252814
:100048005228FF30A5070318A60AFF30A607AA0101
:10005800101425082604031D32283328522873302B
:10006800A5000030A600FF30A7070318A80AFF3034
:10007800A80727032804031D4228432852280511EE
:100088000330A4008A30A3005530A200A20B4A28EE
:10009800A30B4A28A40B4A2851281C282808803A70
:1000A800DF0080305F02031D5B2801302702031840
:1000B8005E285F281F28831210100511AB01080065
:1000C8008312051868286928AB280D30A300FB3077
:1000D800A200A20B6D28A30B6D28722883120518A5
:1000E80076287728AB289828AB01AB0AAB280130D3
:1000F800A2002208A90706302902031C84288528A3
:10010800AB280230A2002208AB00A901AB280130BD
:10011800A2002208A90733302902031C9428952835
:10012800AB28AB01A901AB282B08A200A301230827
:10013800003A0319A028AB282208003A03197828A6
:10014800013A03197B28033A03198B28AB280800C6
:100158008B1DAF28B028BD280B1CB328B428BD2898
:100168000518B728B828BC280518BB28BC28BD28FE
:100178000B1083160C1CC128C228CD2883120C1C16
:10018800C628C728CD28AA01AA0A0C1010108E016B
:100198008F01831221088A00200E8300DE0E5E0E76
:1001A800090083169F01073083129900C93083160E
:1001B8008500950183120510851005110512851219
:1001C8008B170B178B158316161408000621D520DC
:1001D8000121F820642083122B03031DF428F5283D
:1001E800EE281220EE280B28303083129000831658
:1001F8000C1483128E018F0108008312A901AB0130
:0E020800AA0108008316FF239000831208004D
:02400E00D431AB
:00000001FF
